:020000040800F2
:1000000000000220490F0008410E00084F0E0008B2
:10001000550E00085B0E0008610E0008000000008D
:10002000000000000000000000000000670E000853
:10003000750E000800000000830E0008910E0008F5
:10004000990F0008990F0008990F0008990F0008F0
:10005000990F0008990F0008990F0008990F0008E0
:10006000990F0008990F0008990F0008990F0008D0
:10007000990F0008990F0008990F0008990F0008C0
:10008000990F0008990F0008990F00080000000060
:10009000000000000000000000000000990F0008B0
:1000A000990F0008990F0008990F0008990F000890
:1000B000990F0008990F0008990F0008990F000880
:1000C000990F0008990F0008990F0008990F000870
:1000D000990F0008990F0008990F00080000000010
:1000E000990F0008990F0008990F00080000000000
:1000F000000000000000000000000000990F000850
:1001000000000000990F0008990F0008990F0008DF
:1001100000000000000000000000000000000000DF
:10012000990F0008990F0008990F0008990F00080F
:10013000990F00080000000000000000000000000F
:100140000000000000000000000000009D0E0008FC
:10015000990F0008990F0008990F0008990F0008DF
:10016000990F0008990F000800000000000000002F
:10017000000000000000000000000000000000007F
:1001800000000000990F00080000000000000000BF
:08019000990F0008990F000807
:1001980010B5054C237833B9044B13B10448AFF3B9
:1001A80000800123237010BDD8010020000000004A
:1001B800F076000808B5034B1BB103490348AFF3B9
:1001C800008008BD00000000DC010020F076000877
:1001D80053B94AB9002908BF00281CBF4FF0FF31A6
:1001E8004FF0FF3000F072B9ADF1080C6DE904CEA4
:1001F80000F006F8DDF804E0DDE9022304B07047FA
:100208002DE9F047089E04468846002B4BD18A42C8
:10021800154667D9B2FA82F24AB1C2F1200701FA4B
:1002280002F320FA07F7954047EA030894404FEA9B
:10023800154E230CB8FBFEF71FFA85FC0EFB17883A
:1002480043EA084307FB0CF1994209D9EB1807F177
:10025800FF3080F01B81994240F21881023F2B4405
:100268005B1AA4B2B3FBFEF00EFB103344EA03445E
:1002780000FB0CFCA44509D92C1900F1FF3380F0D0
:100288000781A44540F2048102382C4440EA074023
:10029800A4EB0C0400271EB1D4400023C6E9004398
:1002A8003946BDE8F0878B4209D9002E00F0EB8073
:1002B8000027C6E9000138463946BDE8F087B3FA99
:1002C80083F7002F47D18B4202D3824200F2FA8093
:1002D800841A61EB030301209846002EE0D0C6E99A
:1002E8000048DDE702B9FFDEB2FA82F2002A40F0E8
:1002F8008F80491B4FEA154E1FFA85F80127B1FB7D
:10030800FEFC230C0EFB1C1143EA014308FB0CF115
:10031800994207D9EB180CF1FF3002D2994200F24A
:10032800CD808446591AA3B2B1FBFEF00EFB10141F
:1003380043EA044408FB00F8A04507D92C1900F14A
:10034800FF3302D2A04500F2B6801846A4EB080499
:1003580040EA0C409FE7C7F1200CBB4022FA0CFE94
:100368004EEA030E01FA07F420FA0CF521FA0CF311
:100378004FEA1E482543B3FBF8F92C0C08FB193348
:100388001FFA8EFA44EA034309FB0AF49C4202FA74
:1003980007F200FA07F10BD91EEB030309F1FF304E
:1003A80080F087809C4240F28480A9F1020973445E
:1003B8001B1BADB2B3FBF8F008FB103345EA03444E
:1003C80000FB0AFAA24508D91EEB040400F1FF332A
:1003D8006BD2A24569D90238744440EA0940A0FBAF
:1003E8000289A4EB0A044C45C2464B4654D351D06B
:1003F800002E69D0B1EB0A0564EB030404FA0CFC87
:10040800FD40FC404CEA0505C6E90054002747E7D3
:10041800C2F1200320FA03F7954001FA02F021FA0D
:1004280003F34FEA154E3843010CB3FBFEF71FFAEE
:1004380085F80EFB173341EA034107FB08F38B42AB
:1004480004FA02F407D9691807F1FF3C2FD28B424E
:100458002DD9023F2944CB1A81B2B3FBFEF00EFB23
:10046800103341EA034100FB08F38B4207D96918AE
:1004780000F1FF3C17D28B4215D902382944C91A1A
:1004880040EA07473BE73746304609E70746E7E6CD
:100498001846FBE64145ABD2B8EB020A69EB0E02FF
:1004A80001381346A4E76046E9E7184695E767462A
:1004B800D1E781467CE702382C4447E7ACF1020CCF
:1004C8002B442FE7384608E73746E9E6704700BF70
:1004D80080B582B000AF00237B6025E0164A7B68B8
:1004E80013441B781A465201D31ADBB25AB2134B83
:1004F8005A70134A7B6813441B781A465201D31A60
:10050800DBB25AB20D4B9A7004220C490D4805F023
:1005180071FA4FF400410C4801F095F88C2000F076
:10052800ABFD7B6801337B607B68072BD6DD00BFA2
:100538000837BD4680BD00BF00000020F401002040
:100548000800002048030020000C024080B500AFDE
:10055800394B5D225A7000BF04223749374805F0ED
:1005680049FA0346002BF7D18C2000F085FD324B69
:1005780000225A70304B02221A7000BF04222E4902
:100588002E4805F037FA0346002BF7D18C2000F0EF
:1005980073FD294B00221A7000BF04222649274800
:1005A80005F028FA0346002BF7D18C2000F064FDF3
:1005B800214BFD22DA7000BF04221F491F4805F0B5
:1005C80019FA0346002BF7D18C2000F055FD1A4B81
:1005D8000022DA70184B01221A7000BF0422164953
:1005E800164805F007FA0346002BF7D18C2000F0D7
:1005F80043FD114B00221A7000BF04220E490F4818
:1006080005F0F8F90346002BF7D18C2000F034FDF3
:10061800094B00225A70084BA3225A7000BF0422CB
:100628000549064805F0E6F90346002BF7D18C206A
:1006380000F022FD00BF80BDF40100204803002027
:1006480080B584B000AF00F0A5FC00F047F800F0DA
:100658008BF900F0C7F800F0F3F800F01FF900F08C
:100668004DF906F023FB0023FB600023BB60002349
:100678007B6000233B600121174800F0B3FF03466D
:10068800002B08D0FB68002B02D1BB680133BB608C
:100698000123FB6001E00023FB60BB6803F001035A
:1006A800002B0AD07B68002B03D1FFF711FF002332
:1006B8003B607B6801337B60DDE7BB68002BDAD0E9
:1006C8003B68002B03D1FFF741FF00237B603B68A9
:1006D80001333B60CFE700BF0000024080B59AB00D
:1006E80000AF07F1380330220021184606F03AFF20
:1006F80007F1240300221A605A609A60DA601A61CE
:1007080007F10C0300221A605A609A60DA601A61D5
:100718005A610023BB60314B1B6C304A43F0805355
:1007280013642E4B1B6C03F08053BB60BB68002323
:100738007B602B4B1B682A4A43F440431360284BC9
:100748001B6803F440437B607B680123BB634FF461
:100758008033FB6302233B654FF480037B650423EE
:10076800BB65C023FB6504233B6608237B6607F152
:100778003803184602F0C6FE0346002B01D000F0ED
:10078800CDF90F237B620223BB620023FB624FF487
:10079800A0533B6300237B6307F12403032118461E
:1007A80003F020F90346002B01D000F0B7F901232C
:1007B800FB60C8237B6105233B610223BB6107F112
:1007C8000C03184603F0ECFA0346002B01D000F0A6
:1007D800A5F900BF6837BD4680BD00BF003802409C
:1007E8000070004080B500AF124B134A1A60114BDD
:1007F800124A5A600F4B00229A600E4B0022DA60B0
:100808000C4B4FF480421A610A4B00225A61094B83
:1008180000229A61074B0022DA61064B00221A6215
:10082800044800F02BFF0346002B01D000F076F9B6
:1008380000BF80BD0802002000540040A0860100CF
:1008480080B500AF124B134A1A60114B4FF4007277
:100858005A600F4B00229A600D4B0022DA600C4B55
:1008680000221A610A4B0C4A5A61094B00229A610C
:10087800074B0022DA61064B01221A62044801F094
:1008880035F80346002B01D000F048F900BF80BDC1
:10089800B4020020003800400077010080B500AFA6
:1008A800134B144A1A60124B4FF400725A60104BE3
:1008B80000229A600E4B0022DA600D4B4FF4007252
:1008C8001A610B4B0C4A5A61094B00229A61084B7A
:1008D8000022DA61064B00221A62054801F006F888
:1008E8000346002B01D000F019F900BF80BD00BFFE
:1008F800FC020020003C00400077010080B500AFFA
:10090800174B184A1A60164B4FF482725A60144BF0
:1009180000229A60124B0022DA60114B00221A6101
:100928000F4B00225A610E4B4FF400729A610C4B28
:100938000022DA610A4B00221A62094B00225A622D
:10094800074B00229A62064B0A22DA62044803F037
:1009580075FB0346002B01D000F0E0F800BF80BD16
:100968005C0200200030014080B58CB000AF07F178
:100978001C0300221A605A609A60DA601A61002328
:10098800BB61604B1B6B5F4A43F0100313635D4B05
:100998001B6B03F01003BB61BB6900237B61594BE0
:1009A8001B6B584A43F004031363564B1B6B03F04D
:1009B80004037B617B6900233B61524B1B6B514AEB
:1009C80043F0800313634F4B1B6B03F080033B61C1
:1009D8003B690023FB604B4B1B6B4A4A43F0010306
:1009E8001363484B1B6B03F00103FB60FB68002398
:1009F800BB60444B1B6B434A43F002031363414BF8
:100A08001B6B03F00203BB60BB6800237B603D4B9C
:100A18001B6B3C4A43F0080313633A4B1B6B03F010
:100A280008037B607B6800220821374800F0F2FD4C
:100A380001220121354800F0EDFD00224FF210019E
:100A4800334800F0E7FD0423FB6100233B620023E9
:100A58007B6207F11C0319462B4800F041FC082370
:100A6800FB6101233B6200237B620023BB6207F129
:100A78001C031946244800F033FC3223FB61254B44
:100A88003B6200237B6207F11C0319461E4800F0F5
:100A980027FC0123FB6101233B6200237B620023C7
:100AA800BB6207F11C031946184800F019FC012322
:100AB800FB61184B3B6200237B6207F11C0319465C
:100AC800154800F00DFC4FF21003FB6101233B6257
:100AD80000237B620023BB6207F11C0319460C4804
:100AE80000F0FEFB2023FB6100233B6200237B62B6
:100AF80007F11C031946064800F0F2FB00BF303727
:100B0800BD4680BD00380240001002400008024087
:100B1800000C0240000012100000024080B400AF38
:100B280000BFBD465DF8047B7047000080B582B009
:100B380000AF00237B60104B5B6C0F4A43F480438B
:100B480053640D4B5B6C03F480437B607B6800232C
:100B58003B60094B1B6C084A43F080531364064BF7
:100B68001B6C03F080533B603B68072000F076FB6A
:100B780000BF0837BD4680BD0038024080B58AB046
:100B880000AF786007F1140300221A605A609A6077
:100B9800DA601A617B681B68194A93422CD10023DA
:100BA8003B61184B1B6B174A43F002031363154B49
:100BB8001B6B03F002033B613B694FF410737B61CD
:100BC8001223BB610123FB6100233B6204237B6288
:100BD80007F1140319460C4800F082FB0023FB6060
:100BE800084B1B6C074A43F400131364054B1B6C3A
:100BF80003F40013FB60FB6800BF2837BD4680BDC7
:100C080000540040003802400004024080B58EB015
:100C180000AF786007F1240300221A605A609A60D6
:100C2800DA601A617B681B68594A93425BD10023DA
:100C38003B62584B1B6C574A43F480431364554B33
:100C48001B6C03F480433B623B6A0023FB61514BFE
:100C58001B6B504A43F0040313634E4B1B6B03F0AA
:100C68000403FB61FB690023BB614A4B1B6B494AC8
:100C780043F002031363474B1B6B03F00203BB6192
:100C8800BB6904237B620223BB620023FB6200234F
:100C98003B6306237B6307F1240319463E4800F0B3
:100CA8001FFB08237B620223BB620023FB62002335
:100CB8003B6305237B6307F124031946364800F09C
:100CC8000FFB4FF4A0537B620223BB620023FB623D
:100CD80000233B6305237B6307F1240319462F4850
:100CE80000F0FEFA4FE07B681B682D4A93424AD118
:100CF80000237B61274B1B6C264A43F40043136493
:100D0800244B1B6C03F400437B617B6900233B612C
:100D1800204B1B6B1F4A43F0010313631D4B1B6BD6
:100D280003F001033B613B690023FB60194B1B6B1C
:100D3800184A43F004031363164B1B6B03F00403B8
:100D4800FB60FB6810237B620223BB620023FB620B
:100D580000233B6306237B6307F1240319461148EC
:100D680000F0BEFA4FF4A4537B620223BB62002357
:100D7800FB6200233B6306237B6307F124031946C8
:100D8800054800F0ADFA00BF3837BD4680BD00BF4A
:100D980000380040003802400008024000040240C9
:100DA800003C00400000024080B58AB000AF786087
:100DB80007F1140300221A605A609A60DA601A6117
:100DC8007B681B68194A93422BD100233B61184B5F
:100DD8005B6C174A43F480535364154B5B6C03F404
:100DE80080533B613B690023FB60114B1B6B104A2E
:100DF80043F0010313630E4B1B6B03F00103FB600D
:100E0800FB68E0237B610223BB610023FB610323B2
:100E18003B6205237B6207F114031946054800F07D
:100E28005FFA00BF2837BD4680BD00BF00300140D3
:100E3800003802400000024080B400AF00BFBD4649
:100E48005DF8047B704780B400AFFEE780B400AF64
:100E5800FEE780B400AFFEE780B400AFFEE780B4E1
:100E680000AF00BFBD465DF8047B704780B400AF9B
:100E780000BFBD465DF8047B704780B400AF00BF7B
:100E8800BD465DF8047B704780B500AF00F0D4F82C
:100E980000BF80BD80B500AF024801F017FB00BF5E
:100EA80080BD00BF1808002080B586B000AF78600C
:100EB800144A154BD31A7B617B693B61134B1B6842
:100EC800002B02D1114B124A1A60104B1A687B682A
:100ED80013443A699A4207D206F00AFB02460C23E9
:100EE80013604FF0FF3309E0084B1B68FB60074BAA
:100EF8001A687B681344054A1360FB68184618375C
:100F0800BD4680BD0000022000040000F80100205A
:100F1800280C002080B400AF084BD3F88830074A6B
:100F280043F47003C2F88830044B4FF000629A60B3
:100F380000BFBD465DF8047B704700BF00ED00E0D0
:100F4800DFF834D0002103E00C4B5B5843500431E8
:100F58000B480C4B42189A42F6D30B4A02E0002386
:100F680042F8043B094B9A42F9D3FFF7D3FF06F046
:100F7800C5FAFFF765FB7047000002207877000884
:100F880000000020D8010020D8010020240C0020F7
:100F9800FEE7000080B500AF0E4B1B680D4A43F416
:100FA800007313600B4B1B680A4A43F48063136099
:100FB800084B1B68074A43F480731360032000F052
:100FC8004DF9002000F008F8FFF7B0FD002318469F
:100FD80080BD00BF003C024080B582B000AF7860A1
:100FE800124B1A68124B1B7819464FF47A73B3FBED
:100FF800F1F3B2FBF3F3184600F065F90346002B52
:1010080001D001230EE07B680F2B0AD800227968F3
:101018004FF0FF3000F02DF9064A7B68136000237B
:1010280000E0012318460837BD4680BD10000020A7
:10103800180000201400002080B400AF064B1B7875
:101048001A46064B1B681344044A136000BFBD468A
:101058005DF8047B704700BF18000020440300209F
:1010680080B400AF034B1B681846BD465DF8047B8F
:10107800704700BF4403002080B584B000AF78609B
:10108800FFF7EEFFB8607B68FB60FB68B3F1FF3FDA
:1010980005D0094B1B781A46FB681344FB6000BF58
:1010A800FFF7DEFF0246BB68D31AFA689A42F7D800
:1010B80000BF1037BD4680BD1800002080B485B041
:1010C80000AF78607B6803F00703FB600C4BDB68BC
:1010D800BB60BA684FF6FF031340BB60FB681A0297
:1010E800BB68134343F0BF6343F40033BB60044A57
:1010F800BB68D36000BF1437BD465DF8047B7047FA
:1011080000ED00E080B400AF044BDB681B0A03F07D
:1011180007031846BD465DF8047B704700ED00E004
:1011280080B483B000AF0346FB7197F90730002BFA
:101138000BDBFB7903F01F02074997F907305B09BE
:10114800012000FA02F241F8232000BF0C37BD4607
:101158005DF8047B704700BF00E100E080B483B015
:1011680000AF03463960FB7197F90730002B0ADBA3
:101178003B68DAB20C4997F907301201D2B20B4436
:1011880083F800230AE03B68DAB20849FB7903F0E8
:101198000F03043B1201D2B20B441A7600BF0C377E
:1011A800BD465DF8047B704700E100E000ED00E01B
:1011B80080B489B000AFF860B9607A60FB6803F06A
:1011C8000703FB61FB69C3F10703042B28BF042352
:1011D800BB61FB690433062B02D9FB69033B00E0C2
:1011E80000237B614FF0FF32BB6902FA03F3DA4355
:1011F800BB681A407B699A404FF0FF317B6901FA5E
:1012080003F3D9437B680B40134318462437BD4684
:101218005DF8047B7047000080B582B000AF78604D
:101228007B68013BB3F1807F01D301230FE00A4AB9
:101238007B68013B53600F214FF0FF30FFF78EFFB3
:10124800054B00229A60044B07221A6000231846B7
:101258000837BD4680BD00BF10E000E080B582B011
:1012680000AF78607868FFF729FF00BF0837BD46F0
:1012780080BD80B586B000AF0346B9607A60FB7365
:1012880000237B61FFF73EFF78617A68B968786967
:10129800FFF78EFF024697F90F3011461846FFF701
:1012A8005DFF00BF1837BD4680BD80B582B000AF76
:1012B8000346FB7197F907301846FFF731FF00BF67
:1012C8000837BD4680BD80B582B000AF78607868C9
:1012D800FFF7A2FF034618460837BD4680BD000049
:1012E80080B489B000AF7860396000237B61002347
:1012F8003B610023BB610023FB6159E10122FB69CB
:1013080002FA03F37B613B681B687A6913403B610F
:101318003A697B699A4240F048813B685B68012BD7
:101328000BD03B685B68022B07D03B685B68112BCE
:1013380003D03B685B68122B30D17B689B68BB612C
:10134800FB695B00032202FA03F3DB43BA6913402B
:10135800BB613B68DA68FB695B0002FA03F3BA69B0
:101368001343BB617B68BA699A607B685B68BB6141
:101378000122FB6902FA03F3DB43BA691340BB613C
:101388003B685B681B0903F00102FB6902FA03F37F
:10139800BA691343BB617B68BA695A607B68DB68CA
:1013A800BB61FB695B00032202FA03F3DB43BA6902
:1013B8001340BB613B689A68FB695B0002FA03F360
:1013C800BA691343BB617B68BA69DA603B685B68DA
:1013D800022B03D03B685B68122B23D1FB69DA0828
:1013E8007B68083253F82230BB61FB6903F00703BE
:1013F8009B000F2202FA03F3DB43BA691340BB6177
:101408003B681A69FB6903F007039B0002FA03F3C0
:10141800BA691343BB61FB69DA087B680832B969AA
:1014280043F822107B681B68BB61FB695B000322E1
:1014380002FA03F3DB43BA691340BB613B685B689C
:1014480003F00302FB695B0002FA03F3BA69134372
:10145800BB617B68BA691A603B685B6803F08053BC
:10146800002B00F0A2800023FB60564B5B6C554AB2
:1014780043F480435364534B5B6C03F48043FB6039
:10148800FB68514AFB699B08023352F82330BB6161
:10149800FB6903F003039B000F2202FA03F3DB430B
:1014A800BA691340BB617B68484A934219D07B688C
:1014B800474A934213D07B68464A93420DD07B68D3
:1014C800454A934207D07B68444A934201D104239A
:1014D80008E0072306E0032304E0022302E00123D7
:1014E80000E00023FA6902F0030292009340BA690F
:1014F8001343BB613449FB699B080233BA6941F85D
:101508002320374B1B68BB613B69DB43BA69134037
:10151800BB613B685B6803F48033002B03D0BA6976
:101528003B691343BB612E4ABB6913602C4B5B6854
:10153800BB613B69DB43BA691340BB613B685B68CD
:1015480003F40033002B03D0BA693B691343BB6132
:10155800234ABB695360224B9B68BB613B69DB43F1
:10156800BA691340BB613B685B6803F48013002BC6
:1015780003D0BA693B691343BB61194ABB699360DD
:10158800174BDB68BB613B69DB43BA691340BB613E
:101598003B685B6803F40013002B03D0BA693B690E
:1015A8001343BB610E4ABB69D360FB690133FB611E
:1015B800FB690F2B7FF6A2AE00BF2437BD465DF84E
:1015C800047B7047003802400038014000000240A8
:1015D8000004024000080240000C024000100240D3
:1015E800003C014080B485B000AF78600B467B803A
:1015F8007B681A697B881340002B02D00123FB7398
:1016080001E00023FB73FB7B18461437BD465DF8E9
:10161800047B704780B483B000AF78600B467B8052
:1016280013467B707B78002B03D07A887B689A619D
:1016380003E07B881A047B689A6100BF0C37BD46BB
:101648005DF8047B704780B483B000AF78600B46C8
:101658007B807B685A697B881A407B889A4204D1D0
:101668007B881A047B689A6102E07A887B689A61B1
:1016780000BF0C37BD465DF8047B704780B584B069
:1016880000AF78607B68002B01D101231FE17B68E4
:1016980093F83D30DBB2002B06D17B68002283F83B
:1016A8003C207868FFF76AFA7B68242283F83D209B
:1016B8007B681B681A687B681B6822F001021A6045
:1016C8007B681B681A687B681B6842F400421A60D2
:1016D8007B681B681A687B681B6822F400421A60E2
:1016E80002F04AFBF8607B685B687B4A934207D844
:1016F800FB687A4A934294BF01230023DBB206E0D9
:10170800FB68774A934294BF01230023DBB2002B86
:1017180001D00123DBE0FB68724AA2FB03239B0C88
:10172800BB607B681B685B6823F03F017B681B68B4
:10173800BA680A435A607B681B681B6A23F03F013A
:101748007B685B68644A934202D8BB68013309E04E
:10175800BB684FF4967202FB03F3634AA2FB0323B0
:101768009B0901337A6812680B4313627B681B6814
:10177800DB6923F44F4222F0FF027B685B6856491D
:101788008B420DD8FB68591E7B685B685B00B1FB18
:10179800F3F30133C3F30B03042B38BF04234FE0E7
:1017A8007B689B68002B11D1FB68581E7B685968C1
:1017B8000B465B000B44B0FBF3F30133C3F30B039D
:1017C800002B0CBF01230023DBB212E0FB68581E7C
:1017D8007B6859680B469B000B4499000B44B0FB8F
:1017E800F3F30133C3F30B03002B0CBF01230023D6
:1017F800DBB2002B01D0012322E07B689B68002B21
:101808000ED1FB68581E7B6859680B465B000B4479
:10181800B0FBF3F30133C3F30B0343F400430FE0CE
:10182800FB68581E7B6859680B469B000B4499005F
:101838000B44B0FBF3F30133C3F30B0343F440430E
:10184800796809681343CB617B681B681B6823F0C0
:10185800C0017B68DA697B681B6A1A437B681B686E
:101868000A431A607B681B689B6823F4034323F0D0
:10187800FF037A6811697A68D26811437A68126836
:101888000B4393607B681B68DB6823F0FF017B6870
:101898005A697B689B691A437B681B680A43DA604C
:1018A8007B681B681A687B681B6842F001021A6033
:1018B8007B6800221A647B68202283F83D207B68BD
:1018C80000221A637B68002283F83E200023184612
:1018D8001037BD4680BD00BFA08601007F841E0072
:1018E800FF083D0083DE1B43D34D621080B588B0EE
:1018F80000AF78607B68002B01D1012328E17B6869
:1019080093F84130DBB2002B09D17B68002283F8C1
:1019180040207B68904A5A637868FFF777F97B68BC
:10192800022283F841207B681B68DB697A681268A9
:1019380023F47B6323F00F03D3617B681B680222C7
:101948001A627B685B69022B60D07B68DB68002BBE
:1019580002D110237B6101E020237B617B689B68B7
:10196800202B02D87B695B007B61012002F008FB19
:10197800F8607B681B69B3F5007F25D17B68DB685D
:10198800002B10D07B699B00FA68B2FBF3F2134678
:101998009B0013445B001A467B685B69B2FBF3F358
:1019A80005333B611FE07B69DB00FA68B2FBF3F2A9
:1019B80013469B0013445B001A467B685B69B2FBC5
:1019C800F3F305333B610EE0FA687B69B2FBF3F28F
:1019D80013469B0013445B001A467B685B69B2FBA5
:1019E800F3F305333B613B695C4AA2FB0323DB0845
:1019F8003B613B6903F00103BB613A69BB69D31AD8
:101A08005B08FB61BB691B02BB6103E00223FB614E
:101A18000023BB61FB69012B02D9FB69FF2B07D9A6
:101A28007B685B6C43F010027B685A6401238FE08B
:101A38007B681A69BB6942EA03017B681B68FA691B
:101A48000A431A627B681B68DB6923F47B6323F013
:101A58000F037A6851687A68926811437A68D26885
:101A680011437A6892690A431A437B681B6842F4F7
:101A78000062DA617B681B6A012B61D17B68384A96
:101A88005A637B681B68374A934201D1364B01E0A1
:101A98004FF04023DB697A68126832498A4201D1E3
:101AA800314A01E04FF0402223F47B6323F00F0317
:101AB800D3617B681B682B4A934201D12A4B01E012
:101AC8004FF0402302221A627B681B68254A934222
:101AD80001D1254B01E04FF04023DB697B817B6816
:101AE8005B68B3F5007F03D07B685B68002B03D18C
:101AF8004FF480733B6101E000233B613B699AB27C
:101B08007B689B6899B27B68DB6898B27B689B6945
:101B18009BB203439BB20B439BB213439AB27B899C
:101B280013439BB243F400637B817B681B680D4AB7
:101B3800934201D10C4B01E04FF040237A89DA61DE
:101B48007B6800225A647B68012283F841200023C5
:101B580018462037BD4680BD6B1C0008CDCCCCCCC8
:101B6800811D0008003800400034004080B483B074
:101B780000AF786000BF0C37BD465DF8047B704746
:101B880080B483B000AF786000BF0C37BD465DF805
:101B9800047B704780B483B000AF786000BF0C3717
:101BA800BD465DF8047B704780B582B000AF7860B1
:101BB8007B685B6A1A887B681B68DA607B685B6A8B
:101BC8009A1C7B685A627B685B8D9BB2013B9AB218
:101BD8007B685A857B685B8D9BB2002B0ED17B6836
:101BE8001B685A687B681B6822F0A0025A607B68F1
:101BF800012283F841207868FFF7B8FF00BF083753
:101C0800BD4680BD80B582B000AF78607B681B6838
:101C1800DA687B68DB6A92B21A807B68DB6A9A1C96
:101C28007B68DA627B685B8E9BB2013B9AB27B6809
:101C38005A867B685B8E9BB2002B0ED17B681B6833
:101C48005A687B681B6822F060025A607B68012230
:101C580083F841207868FFF793FF00BF0837BD4637
:101C680080BD80B586B000AF78607B681B689B68D4
:101C78007B617B6893F84130DBB2042B3AD17B69F6
:101C880003F00103012B09D17B681B685B6803F033
:101C98004003402B02D17868FFF7B4FF7B6903F05B
:101CA8004003402B26D17B681B685B6803F0200348
:101CB800202B1FD17B681B685A687B681B6822F041
:101CC80060025A6000233B617B681B68DB683B61EC
:101CD8007B681B689B683B613B697B68012283F8D2
:101CE80041207B685B6C43F002027B685A64786829
:101CF800FFF750FF7B6893F84130DBB2032B36D1F6
:101D08007B6903F00203022B09D17B681B685B68BF
:101D180003F08003802B02D17868FFF745FF7B69C9
:101D280003F00803082B22D17B681B685B6803F06B
:101D38002003202B1BD17B681B685A687B681B68B3
:101D480022F0A0025A600023FB607B681B689B6836
:101D5800FB60FB687B68012283F841207B685B6C31
:101D680043F004027B685A647868FFF713FF00BFEA
:101D78001837BD4680BD000080B588B000AF7860D8
:101D88007B681B689B68FB617B681B68A24A93425F
:101D980001D1A24B01E04FF040239B68BB617B68F7
:101DA8001B685B687B617B681B689B4A934201D117
:101DB8009A4B01E04FF040235B683B617B685B68AE
:101DC800B3F5007F04D07B685B68002B40F09980F6
:101DD800FB6903F00203022B07D17B6903F0800340
:101DE800002B02D0786800F025F9BB6903F00103E5
:101DF800012B07D13B6903F04003002B02D0786820
:101E080000F0C8F9BB6903F04003402B3AD13B69A5
:101E180003F02003002B35D07B681B687E4A934271
:101E280001D17E4B01E04FF040235A687B681B6864
:101E380079498B4201D1794B01E04FF0402322F0E0
:101E480060025A607B681B685A687B681B6822F0CE
:101E5800A0025A600023FB607B681B68DB68FB609C
:101E68007B681B689B68FB60FB687B68012283F8C2
:101E780041207B685B6C43F002027B685A64786897
:101E8800FFF788FEFB6903F00803082B40F0BE80CB
:101E98007B6903F02003002B00F0B8807B681B6887
:101EA8005A687B681B6822F0A0025A607B681B682E
:101EB800594A934201D1594B01E04FF040235A68E7
:101EC8007B681B6854498B4201D1544B01E04FF0A9
:101ED800402322F060025A600023BB607B681B68C5
:101EE8009B68BB60BB687B68012283F841207B68E4
:101EF8005B6C43F004027B685A647868FFF74AFE1B
:101F080084E0BB6903F00203022B07D13B6903F0AD
:101F18008003002B02D0786800F0BEF8FB6903F05C
:101F28000103012B07D17B6903F04003002B02D08A
:101F3800786800F0FDF8FB6903F04003402B2FD1CF
:101F48007B6903F02003002B2AD07B681B685A6842
:101F58007B681B6822F060025A607B681B682E4A07
:101F6800934201D12D4B01E04FF040235A687B6822
:101F78001B6829498B4201D1284B01E04FF04023CF
:101F880022F0A0025A607B68012283F841207B6816
:101F98005B6C43F002027B685A647868FFF7FAFDCD
:101FA800BB6903F00803082B31D13B6903F0200318
:101FB800002B2CD07B681B68174A934201D1174B22
:101FC80001E04FF040235A687B681B6812498B4236
:101FD80001D1124B01E04FF0402322F0A0025A60D9
:101FE8007B681B685A687B681B6822F060025A602D
:101FF8007B68012283F841207B685B6C43F0040214
:102008007B685A647868FFF7C5FD00E000BF00BF31
:102018002037BD4680BD00BF003800400034004076
:1020280080B483B000AF786000BF0C37BD465DF860
:10203800047B704780B582B000AF78607B685B6ACC
:10204800991C7A6851621A887B681B68DA607B6819
:102058005B8D9BB2013B9AB27B685A857B685B8D2E
:102068009BB2002B13D17B681B685A687B681B687E
:1020780022F0A0025A607B685B8E9BB2002B06D1CF
:102088007B68012283F841207868FFF7C9FF00BF09
:102098000837BD4680BD000080B582B000AF7860CB
:1020A8007B685B6A991C7A68516219887B681B682F
:1020B8001D4A934201D11D4B01E04FF040230A46CF
:1020C800DA607B685B8D9BB2013B9AB27B685A856C
:1020D8007B685B8D9BB2002B21D17B681B68124A01
:1020E800934201D1114B01E04FF040235A687B68BD
:1020F8001B680D498B4201D10C4B01E04FF0402386
:1021080022F0A0025A607B685B8E9BB2002B06D13E
:102118007B68012283F841207868FFF781FF00BFC0
:102128000837BD4680BD00BF00380040003400407D
:1021380080B582B000AF78607B681B68D8687B6820
:10214800DB6A991C7A68D16282B21A807B685B8EDE
:102158009BB2013B9AB27B685A867B685B8E9BB2C6
:10216800002B13D17B681B685A687B681B6822F0B8
:1021780060025A607B685B8D9BB2002B06D17B683E
:10218800012283F841207868FFF74AFF00BF08372B
:10219800BD4680BD80B582B000AF78607B681B68A3
:1021A800204A934201D1204B01E04FF04023D868E8
:1021B8007B68DB6A991C7A68D16282B21A807B6874
:1021C8005B8E9BB2013B9AB27B685A867B685B8EBA
:1021D8009BB2002B21D17B681B68124A934201D124
:1021E800114B01E04FF040235A687B681B680D498A
:1021F8008B4201D10C4B01E04FF0402322F06002EA
:102208005A607B685B8D9BB2002B06D17B680122EC
:1022180083F841207868FFF703FF00BF0837BD4601
:1022280080BD00BF0038004000340040F0B58FB0DA
:102238000AAF78607B68002B01D101230FE17B682E
:102248001B68BB607B6893F8BD33DBB2002B06D1FB
:102258007B68002283F8BC23786804F05BFE7B6807
:10226800032283F8BD23BB68DB6B03F48073002B68
:1022780002D17B6800221A617B681B68184602F04D
:1022880056F87B681B683B607E686D4606F1100453
:102298000FCC0FC50FCC0FC594E8030085E80300E9
:1022A800331D0ECB386801F02DFF0346002B05D0F7
:1022B8007B68022283F8BD230123D0E07B681B687A
:1022C8000021184602F044F80023FB734AE0FA7B29
:1022D80079681346DB009B1A9B000B443D330122AF
:1022E8001A70FA7B79681346DB009B1A9B000B4433
:1022F8003C33FA7B1A70FA7BFB7B98B279681346F9
:10230800DB009B1A9B000B44423302461A80FA7B7F
:1023180079681346DB009B1A9B000B443F3300226D
:102328001A70FA7B79681346DB009B1A9B000B44F2
:10233800443300221A60FA7B79681346DB009B1A43
:102348009B000B44483300221A60FA7B79681346D5
:10235800DB009B1A9B000B44503300221A60FB7B66
:102368000133FB73FA7B7B685B689A42AFD3002327
:10237800FB7344E0FA7B79681346DB009B1A9B00E9
:102388000B4403F2FD1300221A70FA7B7968134696
:10239800DB009B1A9B000B4403F5FE73FA7B1A7053
:1023A800FA7B79681346DB009B1A9B000B4403F207
:1023B800FF1300221A70FA7B79681346DB009B1A18
:1023C8009B000B4403F5017300221A60FA7B7968BD
:1023D8001346DB009B1A9B000B4403F50273002293
:1023E8001A60FA7B79681346DB009B1A9B000B4442
:1023F80003F5047300221A60FB7B0133FB73FA7B3D
:102408007B685B689A42B5D37B681B683B607E68D3
:102418006D4606F110040FCC0FC50FCC0FC594E81C
:10242800030085E80300331D0ECB386801F0BAFFBE
:102438000346002B05D07B68022283F8BD230123C5
:102448000DE07B68002283F838207B68012283F83E
:10245800BD237B681B68184603F002F80023184662
:102468001437BD46F0BD80B584B000AF78607B6896
:102478001B68FB607B6893F8BC33012B01D10223F6
:1024880020E07B68012283F8BC237B689B6A012BD0
:1024980009D17B689B69012B05D0FB689B6B43F4D2
:1024A8008032FB689A637B681B68184601F02EFF30
:1024B8007B681B68184602F0B2FF7B68002283F82D
:1024C800BC23002318461037BD4680BD90B58DB09B
:1024D80000AF78607B681B683B623B6AFB617B6886
:1024E8001B68184603F070F80346002B40F09D83E4
:1024F8007B681B68184602F0D4FF0346002B00F0E7
:1025080093837B681B68184602F0CBFF034603F0F1
:102518000203022B07D17B681B685A697B681B681A
:1025280002F002025A617B681B68184602F0B9FF84
:10253800034603F01003102B61D17B681B689A696E
:102548007B681B6822F010029A613B6A1B6ABB61B8
:10255800BB6903F00F021346DB009B1A9B0003F5CF
:10256800FC737A68134404337B61BB695B0C03F02A
:102578000F03022B24D1BA6947F6F0731340002BDE
:1025880035D07B69D968BB691B099BB2C3F30A03C1
:102598009BB21A46386A02F01FFE7B69DA68BB698B
:1025A8001B09C3F30A031A447B69DA607B699A69D9
:1025B800BB691B09C3F30A031A447B699A6116E0D5
:1025C800BB695B0C03F00F03062B10D17B6803F586
:1025D800717308221946386A02F0FEFD7B699A6910
:1025E800BB691B09C3F30A031A447B699A617B68B8
:1025F8001B689A697B681B6842F010029A617B68C5
:102608001B68184602F04DFF034603F40023B3F598
:10261800002F6ED100237B627B681B68184602F08E
:1026280053FFB86262E0BB6A03F00103002B57D086
:102638007B681B687A6AD2B21146184602F078FFA6
:1026480038613B6903F00103002B0CD07B6A5A0107
:10265800FB69134403F530631A4601239360796AD2
:10266800786800F099FD3B6903F00803002B0CD053
:102678007B6A5A01FB69134403F530631A46082341
:102688009360796A786800F093FE3B6903F0100361
:10269800002B08D07B6A5A01FB69134403F53063A9
:1026A8001A46102393603B6903F02003002B08D0DF
:1026B8007B6A5A01FB69134403F530631A462023E9
:1026C80093603B6903F40053002B09D07B6A5A01DD
:1026D800FB69134403F530631A464FF400539360C3
:1026E8007B6A01337B62BB6A5B08BB62BB6A002BF7
:1026F80099D17B681B68184602F0D3FE034603F4A1
:102708008023B3F5802F40F0C0807B681B68184693
:1027180002F0F4FEB86200237B62B2E0BB6A03F009
:102728000103002B00F0A7807B681B687A6AD2B28D
:102738001146184602F01AFF38613B6903F001039D
:10274800002B57D07B6A03F00F03012202FA03F330
:10275800FB60FB6903F500635A6BFB68DB43F969AF
:1027680001F5006113404B637B6A5A01FB6913440E
:1027780003F510631A46012393607B681B69012BDC
:1027880032D179687A6A1346DB009B1A9B000B44A6
:102798004833196878687A6A1346DB009B1A9B00ED
:1027A800034444331B68194478687A6A1346DB008B
:1027B8009B1A9B000344483319607B6A002B13D192
:1027C80079687A6A1346DB009B1A9B000B445033E6
:1027D8001B68002B08D17B6818687B6803F5717348
:1027E8001A46012102F022FF7B6ADBB2194678689B
:1027F80004F01FFC3B6903F00803002B08D07B6A38
:102808005A01FB69134403F510631A4608239360C1
:102818003B6903F01003002B08D07B6A5A01FB695F
:10282800134403F510631A46102393603B6903F0C1
:102838004003002B08D07B6A5A01FB69134403F557
:1028480010631A46402393603B6903F00203002B90
:1028580008D07B6A5A01FB69134403F510631A46D2
:10286800022393603B6903F08003002B03D0796A4D
:10287800786800F003FC7B6A01337B62BB6A5B0803
:10288800BB62BB6A002B7FF449AF7B681B681846A4
:1028980002F007FE034603F00043B3F1004F22D1D4
:1028A800FB6903F500635B68FA6902F5006223F0CF
:1028B800010353607B6893F8F433012B08D17B68DC
:1028C800002283F8F4230021786800F00FFE02E06C
:1028D800786804F01BFC7B681B685A697B681B6876
:1028E80002F000425A617B681B68184602F0D9FD65
:1028F800034603F40063B3F5006F12D1FB6903F5D7
:1029080000639B6803F00103012B02D1786804F08F
:10291800D7FB7B681B685A697B681B6802F40062F6
:102928005A617B681B68184602F0BBFD034603F436
:102938008053B3F5805F40F0C780FB6903F50063FF
:102948005B68FA6902F5006223F0010353607B6853
:102958001B681021184601F089FE0023FB6256E02F
:10296800FB6A5A01FB69134403F510631A464FF6D4
:102978007F339360FB6A5A01FB69134403F51063C4
:102988001B68FA6A5101FA690A4402F5106223F4D5
:1029980000131360FB6A5A01FB69134403F51063C3
:1029A8001B68FA6A5101FA690A4402F5106243F099
:1029B80000631360FB6A5A01FB69134403F5306333
:1029C8001A464FF67F339360FB6A5A01FB6913443A
:1029D80003F530631B68FA6A5101FA690A4402F583
:1029E800306223F400131360FB6A5A01FB69134435
:1029F80003F530631B68FA6A5101FA690A4402F563
:102A0800306243F000631360FB6A0133FB627B684A
:102A18005B68FA6A9A42A3D3FB6903F50063DB6932
:102A2800FA6902F5006243F00113D3617B681B6BFE
:102A3800002B16D0FB6903F50063D3F88430FA69DC
:102A480002F5006243F00B03C2F88430FB6903F51A
:102A580000635B6CFA6902F5006243F00B03536490
:102A680015E0FB6903F500635B69FA6902F500622A
:102A780043F4005343F02B035361FB6903F50063F0
:102A88001B69FA6902F5006243F00B031361FB69E5
:102A980003F500631B68FA6902F5006223F4FE631C
:102AA80013607B6818687B681B69D9B27B6803F57B
:102AB80071731A4602F0BAFD7B681B685A697B6815
:102AC8001B6802F480525A617B681B68184602F042
:102AD800E8FC034603F40053B3F5005F24D17B6898
:102AE8001B68184602F07EFD7B681B68184601F0DB
:102AF8001EFE03461A467B68DA607B681C6801F094
:102B08002FF901467B68DB68DBB21A46204601F0E4
:102B18005BFB786804F0B5FA7B681B685A697B68C8
:102B28001B6802F400525A617B681B68184602F061
:102B3800B8FC034603F00803082B0AD1786804F0B0
:102B480092FA7B681B685A697B681B6802F0080266
:102B58005A617B681B68184602F0A3FC034603F41D
:102B68008013B3F5801F0FD100237B627B6ADBB231
:102B78001946786804F0EAFA7B681B685A697B682A
:102B88001B6802F480125A617B681B68184602F0C1
:102B980088FC034603F40013B3F5001F0FD100238C
:102BA8007B627B6ADBB21946786804F0BDFA7B6801
:102BB8001B685A697B681B6802F400125A617B68BB
:102BC8001B68184602F06DFC034603F08043B3F11E
:102BD800804F0AD1786804F0CBFA7B681B685A6981
:102BE8007B681B6802F080425A617B681B68184644
:102BF80002F057FC034603F00403042B15D17B684D
:102C08001B685B68BB61BB6903F00403002B02D03F
:102C1800786804F0BBFA7B681B6859687B681B6896
:102C2800BA690A435A6000E000BF3437BD4690BD18
:102C380080B582B000AF78600B46FB707B6893F874
:102C4800BC33012B01D1022313E07B68012283F8F6
:102C5800BC237B68FA7883F838207B681B68FA788D
:102C68001146184602F0B5FB7B68002283F8BC23A6
:102C7800002318460837BD4680BD80B584B000AF34
:102C88007860084611461A460346FB700B463B809F
:102C98001346BB700023FB7297F90330002B0FDA41
:102CA800FB7803F00F021346DB009B1A9B003833B6
:102CB8007A6813440433FB60FB6801225A700FE002
:102CC800FB7803F00F021346DB009B1A9B0003F509
:102CD800FC737A6813440433FB60FB6800225A7063
:102CE800FB7803F00F03DAB2FB681A703A88FB68C6
:102CF8009A60FB68BA78DA70FB685B78002B04D0BE
:102D0800FB681B789AB2FB68DA80BB78022B02D189
:102D1800FB6800221A717B6893F8BC33012B01D140
:102D280002230EE07B68012283F8BC237B681B68C2
:102D3800F968184601F020FD7B68002283F8BC235F
:102D4800FB7A18461037BD4680BD80B584B000AF09
:102D580078600B46FB7097F90330002B0FDAFB788D
:102D680003F00F021346DB009B1A9B0038337A6886
:102D780013440433FB60FB6801225A700FE0FB78B0
:102D880003F00F021346DB009B1A9B0003F5FC734C
:102D98007A6813440433FB60FB6800225A70FB789E
:102DA80003F00F03DAB2FB681A707B6893F8BC3340
:102DB800012B01D102230EE07B68012283F8BC239A
:102DC8007B681B68F968184601F05EFD7B68002285
:102DD80083F8BC23002318461037BD4680BD80B554
:102DE80086B000AFF8607A603B600B46FB72FB7AF6
:102DF80003F00F021346DB009B1A9B0003F5FC73DC
:102E0800FA68134404337B617B697A68DA607B690A
:102E18003A685A617B6900229A617B6900225A707C
:102E2800FB7A03F00F03DAB27B691A70FB681B693F
:102E3800012B02D17A687B691A61FB7A03F00F03D0
:102E4800002B09D1FB681868FB681B69DBB21A46BE
:102E5800796902F039F808E0FB681868FB681B69B3
:102E6800DBB21A46796901F0EBFD002318461837E2
:102E7800BD4680BD80B586B000AFF8607A603B6023
:102E88000B46FB72FB7A03F00F021346DB009B1A1A
:102E98009B003833FA68134404337B617B697A6892
:102EA800DA607B693A685A617B6900229A617B69BA
:102EB80001225A70FB7A03F00F03DAB27B691A70A9
:102EC800FB681B69012B02D17A687B691A61FB7A5E
:102ED80003F00F03002B09D1FB681868FB681B6916
:102EE800DBB21A46796901F0EFFF08E0FB68186861
:102EF800FB681B69DBB21A46796901F0A1FD002362
:102F080018461837BD4680BD80B584B000AF7860DC
:102F18000B46FB70FB7803F00F027B685B689A42F4
:102F280001D9012350E097F90330002B0FDAFB7821
:102F380003F00F021346DB009B1A9B0038337A68B4
:102F480013440433FB60FB6801225A700DE0FA78E1
:102F58001346DB009B1A9B0003F5FC737A68134445
:102F68000433FB60FB6800225A70FB6801229A70E8
:102F7800FB7803F00F03DAB2FB681A707B6893F8EA
:102F8800BC33012B01D102231EE07B68012283F8A8
:102F9800BC237B681B68F968184602F046F9FB7881
:102FA80003F00F03002B0AD17B6818687B681B6944
:102FB800D9B27B6803F571731A4602F037FB7B6858
:102FC800002283F8BC23002318461037BD4680BD75
:102FD80080B584B000AF78600B46FB70FB7803F0D7
:102FE8000F027B685B689A4201D9012342E097F996
:102FF8000330002B0FDAFB7803F00F021346DB00D7
:103008009B1A9B0038337A6813440433FB60FB68CF
:1030180001225A700FE0FB7803F00F021346DB0021
:103028009B1A9B0003F5FC737A6813440433FB6016
:10303800FB6800225A70FB6800229A70FB7803F044
:103048000F03DAB2FB681A707B6893F8BC33012B64
:1030580001D102230EE07B68012283F8BC237B6840
:103068001B68F968184602F04EF97B68002283F85D
:10307800BC23002318461037BD4680BD80B58AB0F2
:1030880002AF786039607B681B687B617B693B6154
:103098003A681346DB009B1A9B0038337A6813445E
:1030A8000433FB60FB689A69FB685B699A4201D943
:1030B80001236CE0FB685A69FB689B69D31AFB61C2
:1030C800FB689B68FA699A4202D9FB689B68FB61B6
:1030D800FB6903339B08BB612BE0FB685A69FB68FB
:1030E8009B69D31AFB61FB689B68FA699A4202D90B
:1030F800FB689B68FB61FB6903339B08BB61FB684A
:10310800D9683B68DAB2FB6998B27B681B69DBB2A5
:1031180000930346786902F02AF8FB68DA68FB69CD
:103128001A44FB68DA60FB689A69FB691A44FB6811
:103138009A613B685A013B69134403F510639B6924
:103148009BB2BA699A4209D8FB689A69FB685B69BD
:103158009A4203D2FB685B69002BBED1FB685A69AF
:10316800FB689B699A4211D83B6803F00F03012260
:1031780002FA03F3BB603B6903F500635A6BBB6853
:10318800DB43396901F5006113404B63002318469E
:103198002037BD4680BD000080B586B000AF78609E
:1031A80039607B681B687B617B693B617B693C3369
:1031B80004331B68FB603B685A013B69134403F501
:1031C80030639B68BB607B681B69012B40F0A08063
:1031D800BB6803F00803002B15D0FB68724A9342C2
:1031E80040F2DD80BB6803F40043002B00F0D78079
:1031F8003B685A013B69134403F530631A464FF4A0
:1032080000439360CBE0BB6803F02003002B09D098
:103218003B685A013B69134403F530631A4620237F
:103228009360BCE0BB6803F02803002B40F0B78034
:10323800FB685D4A93420FD9BB6803F40043002B37
:103248000AD03B685A013B69134403F530631A46B8
:103258004FF400439360A2E079683A681346DB00B4
:103268009B1A9B000B4403F501731A683B685901CC
:103278003B690B4403F530631B69C3F31203D11A8E
:1032880078683A681346DB009B1A9B00034403F5F1
:103298000573196079683A681346DB009B1A9B002E
:1032A8000B4403F50273196878683A681346DB0023
:1032B8009B1A9B00034403F501731B681944786843
:1032C8003A681346DB009B1A9B00034403F502731C
:1032D80019603B68002B14D179683A681346DB0003
:1032E8009B1A9B000B4403F504731B68002B08D141
:1032F8007B6818687B6803F571731A46012102F030
:1033080095F93B68DBB21946786803F077FE46E02A
:10331800FB68264A934224D1BB6803F40043002B80
:103328000AD03B685A013B69134403F530631A46D7
:103338004FF40043936032E0BB6803F02003002B96
:1033480008D03B685A013B69134403F530631A46B9
:10335800202393603B68DBB21946786803F04EFE81
:103368001DE03B68002B14D179683A681346DB00EE
:103378009B1A9B000B4403F504731B68002B08D1B0
:103388007B6818687B6803F571731A46002102F0A0
:103398004DF93B68DBB21946786803F02FFE00232D
:1033A80018461837BD4680BD0A30544F0A31544F6D
:1033B80080B586B000AF786039607B681B687B6138
:1033C8007B693B617B693C3304331B68FB603B686A
:1033D8005A013B69134403F530639B68BB60FB6883
:1033E800154A93420ED9BB6803F40043002B09D059
:1033F8003B685A013B69134403F530631A464FF49E
:1034080000439360786803F0E7FDFB680A4A93423B
:103418000CD97B681B69012B08D17B6818687B680D
:1034280003F571731A46012102F000F900231846CA
:103438001837BD4680BD00BF0A30544F80B485B0F0
:1034480000AF78600B46FB7013463B807B681B68B7
:103458005B6ABB60FB78002B07D13B8819047B684B
:103468001B68BA680A439A6228E07B681B689B6AF3
:103478001B0CBA681344BB600023FB730DE07B6828
:103488001A68FB7B40339B0013445B681B0CBA68CB
:103498001344BB60FB7B0133FB73FA7BFB78013B76
:1034A8009A42ECD33B8818047B681968FB78013B87
:1034B800BA68024340339B000B445A600023184605
:1034C8001437BD465DF8047B704780B483B000AF05
:1034D80078600B467B807B681B687A885A62002379
:1034E80018460C37BD465DF8047B704780B483B03E
:1034F80000AF78600B46FB7000BF0C37BD465DF827
:10350800047B704780B586B000AF78607B68002B7D
:1035180001D101235BE27B681B6803F00103002BE8
:1035280075D0A34B9B6803F00C03042B0CD0A04B65
:103538009B6803F00C03082B12D19D4B5B6803F4C6
:103548008003B3F5800F0BD1994B1B6803F400334C
:10355800002B5BD07B685B68002B57D1012336E2D8
:103568007B685B68B3F5803F06D1914B1B68904A36
:1035780043F4803313601DE07B685B68B3F5A02FCC
:103588000CD18B4B1B688A4A43F480231360884B09
:103598001B68874A43F4803313600BE0844B1B6835
:1035A800834A23F480331360814B1B68804A23F4D9
:1035B800802313607B685B68002B13D0FDF750FDF8
:1035C800386108E0FDF74CFD02463B69D31A642BCD
:1035D80001D90323FBE1764B1B6803F40033002B6E
:1035E800F0D014E0FDF73CFD386108E0FDF738FD48
:1035F80002463B69D31A642B01D90323E7E16C4BDC
:103608001B6803F40033002BF0D100E000BF7B6897
:103618001B6803F00203002B63D0654B9B6803F023
:103628000C03002B0BD0624B9B6803F00C03082B98
:103638001CD15F4B5B6803F48003002B16D15C4BF5
:103648001B6803F00203002B05D07B68DB68012BA5
:1036580001D00123BBE1564B1B6823F0F8027B68BD
:103668001B69DB00524913430B603AE07B68DB6857
:10367800002B20D04F4B01221A60FDF7F1FC386176
:1036880008E0FDF7EDFC02463B69D31A022B01D98D
:1036980003239CE1464B1B6803F00203002BF0D088
:1036A800434B1B6823F0F8027B681B69DB00404929
:1036B80013430B6015E03F4B00221A60FDF7D0FC66
:1036C800386108E0FDF7CCFC02463B69D31A022BAF
:1036D80001D903237BE1364B1B6803F00203002B5F
:1036E800F0D17B681B6803F00803002B30D07B689F
:1036F8005B69002B16D0304B01221A60FDF7B0FC35
:10370800386108E0FDF7ACFC02463B69D31A022B8E
:1037180001D903235BE1264B5B6F03F00203002B07
:10372800F0D015E0244B00221A60FDF799FC3861AF
:1037380008E0FDF795FC02463B69D31A022B01D934
:10374800032344E11A4B5B6F03F00203002BF0D113
:103758007B681B6803F00403002B00F0A0800023A3
:10376800FB75134B1B6C03F08053002B0FD1002308
:10377800BB600F4B1B6C0E4A43F0805313640C4B19
:103788001B6C03F08053BB60BB680123FB750B4BBC
:103798001B6803F48073002B21D1084B1B68074A70
:1037A80043F480731360FDF75BFC386111E000BFE0
:1037B8000038024000004742800E47420070004037
:1037C800FDF74EFC02463B69D31A022B01D90323AD
:1037D800FDE0814B1B6803F48073002BF0D07B68FD
:1037E8009B68012B06D17D4B1B6F7C4A43F001037C
:1037F80013671CE07B689B68052B0CD1774B1B6F0C
:10380800764A43F004031367744B1B6F734A43F003
:10381800010313670BE0714B1B6F704A23F0010320
:1038280013676E4B1B6F6D4A23F0040313677B68A5
:103838009B68002B15D0FDF713FC38610AE0FDF7F3
:103848000FFC02463B69D31A41F28832934201D9F0
:103858000323BCE0614B1B6F03F00203002BEED087
:1038680014E0FDF7FDFB38610AE0FDF7F9FB0246BD
:103878003B69D31A41F28832934201D90323A6E067
:10388800564B1B6F03F00203002BEED1FB7D012B7F
:1038980005D1524B1B6C514A23F0805313647B684B
:1038A8009B69002B00F092804C4B9B6803F00C0343
:1038B800082B5CD07B689B69022B41D1484B0022C6
:1038C8001A60FDF7CDFB386108E0FDF7C9FB024639
:1038D8003B69D31A022B01D9032378E03F4B1B68BD
:1038E80003F00073002BF0D17B68DA697B681B6AF0
:1038F8001A437B685B6A9B011A437B689B6A5B0877
:10390800013B1B041A437B68DB6A1B0633491343DC
:103918004B60334B01221A60FDF7A2FB386108E0C7
:10392800FDF79EFB02463B69D31A022B01D90323FC
:103938004DE02A4B1B6803F00073002BF0D045E0E4
:10394800274B00221A60FDF78BFB386108E0FDF772
:1039580087FB02463B69D31A022B01D9032336E0C1
:103968001E4B1B6803F00073002BF0D12EE07B6820
:103978009B69012B01D1012329E0184B5B68FB608F
:10398800FB6803F480027B68DB699A421CD1FB6800
:1039980003F03F027B681B6A9A4215D1FA6847F622
:1039A800C07313407A68526A93420DD1FB6803F4DE
:1039B80040327B689B6A9A4206D1FB6803F07062CA
:1039C8007B68DB6A9A4201D0012300E00023184695
:1039D8001837BD4680BD00BF007000400038024067
:1039E8006000474280B584B000AF786039607B687A
:1039F800002B01D10123CCE0684B1B6803F00F03B7
:103A08003A689A420CD9654B3A68D2B21A70634B3D
:103A18001B6803F00F033A689A4201D00123B8E00B
:103A28007B681B6803F00203002B20D07B681B68AF
:103A380003F00403002B05D0594B9B68584A43F404
:103A4800E05393607B681B6803F00803002B05D0E4
:103A5800534B9B68524A43F460439360504B9B68B6
:103A680023F0F0027B689B684D4913438B607B68A9
:103A78001B6803F00103002B44D07B685B68012BB3
:103A880007D1474B1B6803F40033002B19D10123DE
:103A98007FE07B685B68022B03D07B685B68032B45
:103AA80007D13F4B1B6803F00073002B09D101239A
:103AB8006FE03B4B1B6803F00203002B01D101238D
:103AC80067E0374B9B6823F003027B685B683449E7
:103AD80013438B60FDF7C4FAF8600AE0FDF7C0FAFB
:103AE8000246FB68D31A41F28832934201D9032374
:103AF8004FE02B4B9B6803F00C027B685B689B00D4
:103B08009A42EBD1254B1B6803F00F033A689A429F
:103B18000CD2224B3A68D2B21A70204B1B6803F0C1
:103B28000F033A689A4201D0012332E07B681B6890
:103B380003F00403002B08D0194B9B6823F4E052D0
:103B48007B68DB68164913438B607B681B6803F04E
:103B58000803002B09D0124B9B6823F460427B6852
:103B68001B69DB000E4913438B6000F021F8014606
:103B78000B4B9B681B0903F00F030A4AD35C21FA1D
:103B880003F3094A1360094B1B681846FDF724FA2A
:103B9800002318461037BD4680BD00BF003C0240D8
:103BA8000038024050770008100000201400002060
:103BB800F0B585B000AF00237B600023FB600023D5
:103BC8003B600023BB60634B9B6803F00C03042B32
:103BD80007D0082B08D0002B40F0B4805E4BBB60A8
:103BE800B3E05E4BBB60B0E05A4B5B6803F03F0349
:103BF8007B60584B5B6803F48003002B4AD0554B1D
:103C08005B689B094FF0000440F2FF114FF000027F
:103C180003EA010504EA0206294632464FF000038A
:103C28004FF00004540144EAD1644B01194622467E
:103C3800491B62EB06024FF000034FF000049401A9
:103C480044EA91648B015B1A64EB02044FF00001B3
:103C58004FF00002E20042EA5372D9000B461446C4
:103C68005B1944EB06044FF000014FF000026202BA
:103C780042EAD35259020B461446184621467B683D
:103C88004FF000041A462346FCF7A2FA03460C46F6
:103C9800FB6049E02F4B5B689B094FF0000440F242
:103CA800FF114FF0000203EA010504EA0206294663
:103CB80032464FF000034FF00004540144EAD16447
:103CC8004B0119462246491B62EB06024FF00003DE
:103CD8004FF00004940144EA91648B015B1A64EB91
:103CE80002044FF000014FF00002E20042EA537272
:103CF800D9000B4614465B1944EB06044FF000014B
:103D08004FF00002A20242EA935299020B4614466F
:103D1800184621467B684FF000041A462346FCF7F4
:103D280057FA03460C46FB600A4B5B681B0C03F012
:103D3800030301335B003B60FA683B68B2FBF3F3B3
:103D4800BB6002E0044BBB6000BFBB681846143779
:103D5800BD46F0BD003802400024F40000127A008D
:103D680080B400AF034B1B681846BD465DF8047B62
:103D7800704700BF1000002080B500AFFFF7F0FFCC
:103D88000146054B9B689B0A03F00703034AD35C73
:103D980021FA03F3184680BD003802406077000816
:103DA80080B586B000AF786000237B6100233B615B
:103DB8007B681B6803F00103002B05D17B681B6837
:103DC80003F00403002B38D0684B00221A60FDF77B
:103DD80047F9786108E0FDF743F902467B69D31A91
:103DE800022B01D90323BDE0614B1B6803F000637C
:103DF800002BF0D17B685A687B689B689B011A434B
:103E08007B68DB681B075A491343C1F88430574B5A
:103E180001221A60FDF724F9786108E0FDF720F91E
:103E280002467B69D31A022B01D903239AE0504B2F
:103E38001B6803F00063002BF0D07B681B6803F05D
:103E48000203002B00F083800023FB60484B1B6CAF
:103E5800474A43F080531364454B1B6C03F080536F
:103E6800FB60FB68434B1B68424A43F48073136052
:103E7800FDF7F6F8786108E0FDF7F2F802467B698D
:103E8800D31A022B01D903236CE03A4B1B6803F4C5
:103E98008073002BF0D0364B1B6F03F440733B61EB
:103EA8003B69002B2FD07B681B6903F440733A6988
:103EB8009A4228D02E4B1B6F23F440733B612E4B44
:103EC80001221A602C4B00221A60294A3B691367A9
:103ED800274B1B6F03F00103012B14D1FDF7C0F82A
:103EE80078610AE0FDF7BCF802467B69D31A41F213
:103EF8008832934201D9032334E01D4B1B6F03F032
:103F08000203002BEED07B681B6903F44073B3F502
:103F1800407F0DD1164B9B6823F4F8127B681B6910
:103F280023F0704323F44073114913438B6005E079
:103F38000F4B9B680E4A23F4F81393600C4B1A6FCF
:103F48007B681B69C3F30B03094913430B677B6841
:103F58001B6803F00803002B03D07B681A7D074B0E
:103F68001A60002318461837BD4680BD68004742CE
:103F78000038024000700040400E4742E0114742BE
:103F880080B487B000AF786000237B6100233B6179
:103F98000023FB600023BB607B68012B3FD1234BD0
:103FA8009B6803F40003FB60FB68002B04D0012B23
:103FB80031D11F4B7B6131E01C4B5B6803F48003FC
:103FC800B3F5800F09D1194BD3F8843003F03F03C0
:103FD800184AB2FBF3F33B6108E0144BD3F8843082
:103FE80003F03F03144AB2FBF3F33B610F4BD3F8E2
:103FF80084309B09C3F308023B6902FB03F3BB60EF
:104008000A4BD3F884301B0F03F00703BA68B2FBDE
:10401800F3F37B6102E000237B6100BF00BF7B6993
:1040280018461C37BD465DF8047B704700380240CF
:104038000080BB0000127A000024F40080B582B032
:1040480000AF78607B68002B01D1012356E07B68C4
:1040580000229A627B6893F85130DBB2002B06D1BC
:104068007B68002283F850207868FCF79DFE7B6807
:10407800022283F851207B681B681A687B681B68DA
:1040880022F040021A607B685A687B689B681A4372
:104098007B68DB681A437B681B691A437B685B692A
:1040A8001A437B689B6903F400731A437B68DB69D6
:1040B8001A437B681B6A42EA03017B689A6A7B6839
:1040C8001B680A431A607B689B691B0C03F0040198
:1040D8007B685A6A7B681B680A435A607B681B685E
:1040E800DA697B681B6822F40062DA617B68002267
:1040F8005A657B68012283F8512000231846083747
:10410800BD4680BD84B080B584B000AF786007F14B
:104118001C0080E80E003B6B012B22D17B689B6B57
:1041280023F480327B689A637B68DB6823F484031A
:1041380023F040037A68D3607B68DB6823F440127D
:104148007B68DA60FB6C012B05D17B68DB6843F484
:1041580080127B68DA60786801F0C6FA0346FB7360
:104168001AE07B68DB6843F040027B68DA607868B5
:1041780001F0BAFA0346FB733B6C002B06D17B684F
:104188009B6B43F480327B689A6305E07B689B6B8A
:1041980023F480327B689A63BB6A012B0BD17B685E
:1041A8009B6843F006027B689A607B689B6843F0D3
:1041B80020027B689A60FB7B18461037BD46BDE835
:1041C800804004B07047000080B487B000AFF8604A
:1041D800B9601346FB71FB79022B65D1BB68414A74
:1041E800934206D9BB68404A934202D80F237B61A9
:1041F80062E0BB683C4A934206D9BB683B4A93429B
:1042080002D80E237B6157E0BB68384A934206D92F
:10421800BB68374A934202D80D237B614CE0BB68E8
:10422800334A934206D9BB68324A934202D80C23D8
:104238007B6141E0BB682F4A934206D9BB682E4A8E
:10424800934202D80B237B6136E0BB682A4A93422B
:1042580006D9BB68294A934202D80A237B612BE01E
:10426800BB68264A934206D9BB68254A934202D8BE
:1042780009237B6120E0BB68214A934206D9BB68C9
:10428800204A934202D808237B6115E0BB681D4A87
:10429800934206D9BB681C4A934202D807237B6124
:1042A8000AE006237B6107E0FB79002B02D1092392
:1042B8007B6101E009237B61FB68DB6823F47052B2
:1042C800FB68DA60FB68DA687B699B0203F4705369
:1042D8001A43FB68DA60002318461C37BD465DF8B0
:1042E800047B7047BFACD800BFE1E400FF23F400B3
:1042F8007F7306019F491A01FF2C31013FA44C012D
:10430800FF356E011FABA601FF47E80180B483B0FB
:1043180000AF78607B689B6843F001027B689A6015
:10432800002318460C37BD465DF8047B704780B4FF
:1043380083B000AF78607B689B6823F001027B68DC
:104348009A60002318460C37BD465DF8047B704719
:1043580080B582B000AF78600B46FB707B68DB6885
:1043680023F0C0427B68DA60FB78012B06D17B68BA
:10437800DB6843F000527B68DA600BE0FB78002BC7
:1043880006D17B68DB6843F080427B68DA6001E035
:10439800012303E03220FCF76FFE0023184608379C
:1043A800BD4680BD84B080B586B000AF786007F1A7
:1043B800240080E80E000023FB757B68FB60002367
:1043C8003B6109E07A683B6940339B001344002253
:1043D8005A603B6901333B613B690E2BF2D9FB6C98
:1043E800002B1CD1FB6803F500635B68FA6802F5D3
:1043F800006243F0020353607B689B6B43F4001236
:104408007B689A637B689B6B23F400227B689A63C2
:104418007B689B6B23F480227B689A630BE07B6844
:104428009B6B23F400127B689A637B689B6B43F455
:1044380000227B689A63FB6803F560631A460023D1
:104448001360FB6803F500631946FB6803F5006316
:104458001A460B681360BB6B012B0CD1FB6A002B4F
:1044680004D10021786800F049F908E00121786852
:1044780000F044F903E00321786800F03FF91021C7
:10448800786800F0F3F80346002B01D00123FB7590
:10449800786800F011F90346002B01D00123FB7561
:1044A800FB6803F500631A4600231361FB6803F5F4
:1044B80000631A4600235361FB6803F500631A463C
:1044C8000023D36100233B6143E03B695A01FB6849
:1044D800134403F510631B6803F00043B3F1004F66
:1044E80018D13B69002B0AD13B695A01FB68134478
:1044F80003F510631A464FF00063136013E03B693D
:104508005A01FB68134403F510631A464FF09043B1
:10451800136008E03B695A01FB68134403F5106314
:104528001A46002313603B695A01FB68134403F5DC
:1045380010631A46002313613B695A01FB68134450
:1045480003F510631A464FF67F3393603B690133D6
:104558003B617B6A3A699A42B7D300233B6143E0E7
:104568003B695A01FB68134403F530631B6803F089
:104578000043B3F1004F18D13B69002B0AD13B69C6
:104588005A01FB68134403F530631A464FF0006381
:10459800136013E03B695A01FB68134403F5306369
:1045A8001A464FF09043136008E03B695A01FB68D4
:1045B800134403F530631A46002313603B695A011C
:1045C800FB68134403F530631A46002313613B6903
:1045D8005A01FB68134403F530631A464FF67F33DC
:1045E80093603B6901333B617B6A3A699A42B7D36E
:1045F800FB6803F500631B69FA6802F5006223F49F
:10460800807313617B6800229A617B686FF0804237
:104618005A613B6B002B05D17B689B6943F0100204
:104628007B689A617B689A690F4B13437A68936138
:10463800FB6B002B05D07B689B6943F008027B6805
:104648009A61FB6C012B07D17B689B6943F080431F
:1046580043F004037A689361FB7D18461837BD461A
:10466800BDE8804004B0704700383C8080B485B015
:1046780000AF786039600023FB603B689B0143F022
:1046880020027B681A61FB680133FB60FB68094AFA
:10469800934201D9032306E07B681B6903F02003DA
:1046A800202BF0D0002318461437BD465DF8047B54
:1046B800704700BF400D030080B485B000AF78603C
:1046C8000023FB607B6810221A61FB680133FB60E2
:1046D800FB68094A934201D9032306E07B681B69FA
:1046E80003F01003102BF0D0002318461437BD46F2
:1046F8005DF8047B704700BF400D030080B485B0AF
:1047080000AF78600B46FB707B68FB60FB6803F5C5
:1047180000631A68FB78F96801F5006113430B60C0
:10472800002318461437BD465DF8047B704780B4F3
:1047380087B000AF78607B683B613B6903F5006335
:104748009B6803F00603FB60FB68002B02D1002383
:10475800FB750AE0FB68022B02D0FB68062B02D12E
:104768000223FB7501E00F23FB75FB7D18461C3700
:10477800BD465DF8047B704780B485B000AF7860B3
:1047880039607B68FB603B681B78BB603B685B7883
:10479800012B3AD1FB6803F50063DA693B681B78A3
:1047A80003F00F03012101FA03F39BB2F96801F545
:1047B80000611343CB61BB685A01FB68134403F5DE
:1047C80010631B6803F40043002B55D1BB685A01E2
:1047D800FB68134403F510631A683B689B68C3F3CE
:1047E8000A013B68DB789B041943BB689B050B43B4
:1047F8001343BA685101FA680A4402F5106243F09B
:10480800805343F40043136036E0FB6803F500630C
:10481800DA693B681B7803F00F03012101FA03F3FF
:104828001B04F96801F500611343CB61BB685A01A9
:10483800FB68134403F530631B6803F40043002B43
:104848001AD1BB685A01FB68134403F530631A6830
:104858003B689B68C3F30A013B68DB789B040B4306
:104868001343BA685101FA680A4402F5306243F00A
:10487800805343F400431360002318461437BD46A1
:104888005DF8047B7047000080B485B000AF7860A5
:1048980039607B68FB603B681B78BB603B685B7872
:1048A800012B61D1BB685A01FB68134403F51063FF
:1048B8001B6803F00043B3F1004F1FD1BB685A01D6
:1048C800FB68134403F510631B68BA685101FA6862
:1048D8000A4402F5106243F000631360BB685A0192
:1048E800FB68134403F510631B68BA685101FA6842
:1048F8000A4402F5106243F080431360FB6803F535
:104908000063DA6B3B681B7803F00F03012101FA9F
:1049180003F39BB2DB43F96801F500611340CB63F5
:10492800FB6803F50063DA693B681B7803F00F0343
:10493800012101FA03F39BB2DB43F96801F5006139
:104948001340CB61BB685A01FB68134403F510633D
:104958001A68BB685901FB680B4403F510631946D4
:10496800354B13400B6060E0BB685A01FB68134489
:1049780003F530631B6803F00043B3F1004F1FD108
:10498800BB685A01FB68134403F530631B68BA68B7
:104998005101FA680A4402F5306243F0006313607B
:1049A800BB685A01FB68134403F530631B68BA6897
:1049B8005101FA680A4402F5306243F080431360FB
:1049C800FB6803F50063DA6B3B681B7803F00F03A1
:1049D800012101FA03F31B04DB43F96801F50061C7
:1049E8001340CB63FB6803F50063DA693B681B7807
:1049F80003F00F03012101FA03F31B04DB43F968F9
:104A080001F500611340CB61BB685A01FB68134490
:104A180003F530631A68BB685901FB680B4403F55A
:104A280030631946054B13400B60002318461437B2
:104A3800BD465DF8047B7047007833EC0078F3EFEF
:104A480080B58AB002AFF860B9601346FB71FB68A5
:104A5800FB61BB681B78BB61BB685B78012B40F0CE
:104A68005C81BB685B69002B32D1BB695A01FB6969
:104A7800134403F510631B69BA695101FA690A44C2
:104A880002F5106223F0FF5323F4C0131361BB69CE
:104A98005A01FB69134403F510631B69BA69510194
:104AA800FA690A4402F5106243F400231361BB69F2
:104AB8005A01FB69134403F510631B69BA69510174
:104AC800FA690A4402F51062DB0CDB04136174E036
:104AD800BB695A01FB69134403F510631B69BA6982
:104AE8005101FA690A4402F51062DB0CDB04136118
:104AF800BB695A01FB69134403F510631B69BA6962
:104B08005101FA690A4402F5106223F0FF5323F4B5
:104B1800C0131361BB695A01FB69134403F51063A1
:104B28001A69BB685969BB689B680B44591EBB6806
:104B38009B68B1FBF3F3D9049D4B0B40B96948015D
:104B4800F969014401F5106113430B61BB695A010E
:104B5800FB69134403F510631A69BB685B69C3F307
:104B68001203B9694801F969014401F51061134359
:104B78000B61BB68DB78012B1FD1BB695A01FB694C
:104B8800134403F510631B69BA695101FA690A44B1
:104B980002F5106223F0C0431361BB695A01FB6937
:104BA800134403F510631B69BA695101FA690A4491
:104BB80002F5106243F000531361FB79012B4BD1CE
:104BC800BB681B69002B09D0BB695A01FB691344F8
:104BD80003F510631A46BB681B695361BB68DB7831
:104BE800012B28D1FB6903F500639B6803F48073EC
:104BF800002B10D1BB695A01FB69134403F51063FC
:104C08001B68BA695101FA690A4402F5106243F057
:104C1800005313600FE0BB695A01FB69134403F5A5
:104C280010631B68BA695101FA690A4402F51062F7
:104C380043F080531360BB695A01FB69134403F5C1
:104C480010631B68BA695101FA690A4402F51062D7
:104C580043F0044313602FE1BB695A01FB69134415
:104C680003F510631B68BA695101FA690A4402F531
:104C7800106243F004431360BB68DB78012B15D046
:104C8800BB685B69002B00F01781FB6903F50063C3
:104C98005A6BBB681B7803F00F03012101FA03F379
:104CA800F96901F5006113434B6305E1FB6903F5FD
:104CB80000639B6803F48073002B10D1BB695A0111
:104CC800FB69134403F510631B68BA695101FA695B
:104CD8000A4402F5106243F0005313600FE0BB6909
:104CE8005A01FB69134403F510631B68BA69510143
:104CF800FA690A4402F5106243F080531360BB68F6
:104D0800D968BB681A78BB685B6998B2FB7900936D
:104D18000346F86800F02BFACEE0BB695A01FB693C
:104D2800134403F530631B69BA695101FA690A44EF
:104D380002F53062DB0CDB041361BB695A01FB69C5
:104D4800134403F530631B69BA695101FA690A44CF
:104D580002F5306223F0FF5323F4C0131361BB68DC
:104D68005B69002B26D1BB695A01FB69134403F523
:104D780030631A69BB689B68C3F31203B9694801B9
:104D8800F969014401F5306113430B61BB695A01AC
:104D9800FB69134403F530631B69BA695101FA6969
:104DA8000A4402F5306243F40023136136E000BF81
:104DB8000000F81FBB685A69BB689B6813445A1EF9
:104DC800BB689B68B2FBF3F3FB82BB695A01FB69C2
:104DD800134403F530631A69FB8AD904394B0B4035
:104DE800B9694801F969014401F5306113430B6160
:104DF800BB695A01FB69134403F530631A69BB6840
:104E08009B68F98A01FB03F3C3F31203B9694801EC
:104E1800F969014401F5306113430B61FB79012BFA
:104E28000DD1BB68DB68002B09D0BB68D968BB69AA
:104E38005A01FB69134403F530630A465A61BB689B
:104E4800DB78012B28D1FB6903F500639B6803F429
:104E58008073002B10D1BB695A01FB69134403F519
:104E680030631B68BA695101FA690A4402F5306275
:104E780043F0005313600FE0BB695A01FB69134408
:104E880003F530631B68BA695101FA690A4402F5EF
:104E9800306243F080531360BB695A01FB691344C5
:104EA80003F530631B68BA695101FA690A4402F5CF
:104EB800306243F004431360002318462037BD4690
:104EC80080BD00BF0000F81F80B487B000AFF86055
:104ED800B9601346FB71FB687B61BB681B783B615B
:104EE800BB685B78012B40F0CD80BB685B69002B09
:104EF80032D13B695A017B69134403F510631B697E
:104F08003A6951017A690A4402F5106223F0FF53A5
:104F180023F4C01313613B695A017B69134403F5F9
:104F280010631B693A6951017A690A4402F51062F3
:104F380043F4002313613B695A017B69134403F569
:104F480010631B693A6951017A690A4402F51062D3
:104F5800DB0CDB0413614EE03B695A017B691344A7
:104F680003F510631B693A6951017A690A4402F52D
:104F78001062DB0CDB0413613B695A017B69134443
:104F880003F510631B693A6951017A690A4402F50D
:104F9800106223F0FF5323F4C0131361BB685A69EE
:104FA800BB689B689A4203D9BB689A68BB685A6118
:104FB8003B695A017B69134403F510631B693A691D
:104FC80051017A690A4402F5106243F4002313611F
:104FD8003B695A017B69134403F510631A69BB687E
:104FE8005B69C3F31203396948017969014401F522
:104FF800106113430B61FB79012B1ED1BB681B6940
:10500800002B09D03B695A017B69134403F51063EF
:105018001A46BB681B6953613B695A017B69134493
:1050280003F510631B683A6951017A690A4402F56D
:10503800106243F00443136092E03B695A017B69B4
:10504800134403F510631B683A6951017A690A44ED
:1050580002F5106243F004431360BB685B69002BE0
:105068007ED07B6903F500635A6BBB681B7803F03D
:105078000F03012101FA03F3796901F50061134374
:105088004B636DE03B695A017B69134403F5306358
:105098001B693A6951017A690A4402F53062DB0CEE
:1050A800DB0413613B695A017B69134403F53063E0
:1050B8001B693A6951017A690A4402F5306223F0A2
:1050C800FF5323F4C0131361BB685B69002B03D043
:1050D800BB689A68BB685A613B695A017B6913448B
:1050E80003F530631B693A6951017A690A4402F58C
:1050F800306243F4002313613B695A017B6913440E
:1051080003F530631A69BB689B68C3F312033969F6
:1051180048017969014401F5306113430B61FB795A
:10512800012B0DD1BB68DB68002B09D0BB68D9689F
:105138003B695A017B69134403F530630A465A6197
:105148003B695A017B69134403F530631B683A696C
:1051580051017A690A4402F5306243F0044313604E
:10516800002318461C37BD465DF8047B704780B4A1
:1051780089B000AFF860B96011461A460B46FB715A
:105188001346BB80FB687B61BB68FB6197F82830DE
:10519800002B1AD1BB8803339B083B610023BB61FA
:1051A8000FE0FB791A037B69134403F580531A4611
:1051B800FB691B681360FB690433FB61BB6901333E
:1051C800BB61BA693B699A42EBD30023184624377E
:1051D800BD465DF8047B704780B489B000AFF860C5
:1051E800B9601346FB80FB687B61BB68FB61FB8889
:1051F80003339B083B610023BB610BE07B6903F52C
:1052080080531A68FB691A60FB690433FB61BB6948
:105218000133BB61BA693B699A42EFD3FB6918460F
:105228002437BD465DF8047B704780B485B000AF75
:10523800786039607B68FB603B681B78BB603B68C3
:105248005B78012B2CD1BB685A01FB68134403F52A
:1052580010631B68002B12DBBB68002B0FD0BB68E8
:105268005A01FB68134403F510631B68BA685101BF
:10527800FA680A4402F5106223F080431360BB68A1
:105288005A01FB68134403F510631B68BA6851019F
:10529800FA680A4402F5106243F4001313602BE025
:1052A800BB685A01FB68134403F530631B68002B85
:1052B80012DBBB68002B0FD0BB685A01FB68134494
:1052C80003F530631B68BA685101FA680A4402F5AD
:1052D800306223F080431360BB685A01FB681344B3
:1052E80003F530631B68BA685101FA680A4402F58D
:1052F800306243F400131360002318461437BD4688
:105308005DF8047B704780B485B000AF7860396081
:105318007B68FB603B681B78BB603B685B78012B54
:1053280028D1BB685A01FB68134403F510631B6856
:10533800BA685101FA680A4402F5106223F40013AE
:1053480013603B68DB78032B03D03B68DB78022BC8
:1053580038D1BB685A01FB68134403F510631B6816
:10536800BA685101FA680A4402F5106243F08053A2
:10537800136027E0BB685A01FB68134403F53063E8
:105388001B68BA685101FA680A4402F5306223F4CE
:10539800001313603B68DB78032B03D03B68DB7892
:1053A800022B0FD1BB685A01FB68134403F5306325
:1053B8001B68BA685101FA680A4402F5306243F082
:1053C80080531360002318461437BD465DF8047BEC
:1053D800704780B485B000AF78600B46FB707B687F
:1053E800FB60FB6803F500631B68FA6802F500625E
:1053F80023F4FE631360FB6803F500631A68FB7807
:105408001B0103F4FE63F96801F5006113430B60A7
:10541800002318461437BD465DF8047B704780B4F6
:1054280085B000AF78607B68FB60FB6803F560635C
:105438001B68FA6802F5606223F003031360FB68D7
:1054480003F500635B68FA6802F5006223F0020363
:105458005360002318461437BD465DF8047B704737
:1054680080B485B000AF78607B68FB60FB6803F5AB
:1054780060631B68FA6802F5606223F00303136037
:10548800FB6803F500635B68FA6802F5006243F0A5
:1054980002035360002318461437BD465DF8047BA9
:1054A800704780B485B000AF78607B685B69FB604B
:1054B8007B689B69FA681340FB60FB6818461437E1
:1054C800BD465DF8047B704780B485B000AF786056
:1054D8007B68FB60FB6803F500639B69BB60FB6846
:1054E80003F50063DB69BA681340BB60BB681B0C3B
:1054F80018461437BD465DF8047B704780B485B004
:1055080000AF78607B68FB60FB6803F500639B690C
:10551800BB60FB6803F50063DB69BA681340BB60D6
:10552800BB689BB218461437BD465DF8047B7047CC
:1055380080B485B000AF78600B46FB707B68FB6079
:10554800FB785A01FB68134403F530639B68BB6022
:10555800FB6803F500635B69BA681340BB60BB680E
:1055680018461437BD465DF8047B704780B487B091
:1055780000AF78600B46FB707B687B617B6903F545
:1055880000631B693B617B6903F500635B6BFB6030
:10559800FB7803F00F03FA6822FA03F3DB01DBB2AE
:1055A8003A6913433B61FB785A017B69134403F55D
:1055B80010639B683A691340BB60BB6818461C3788
:1055C800BD465DF8047B704780B483B000AF786057
:1055D8007B685B6903F0010318460C37BD465DF82C
:1055E800047B704780B485B000AF78607B68FB604F
:1055F800FB6803F510631B68FA6802F5106223F470
:10560800FF6323F007031360FB6803F500635B681F
:10561800FA6802F5006243F4807353600023184669
:105628001437BD465DF8047B7047000080B487B02E
:1056380000AFF8600B467A60FB72FB687B61FB6821
:105648003C3304331B683B613B69264A93420AD9C1
:105658007B6903F530631B6803F00043B3F1004F27
:1056680001D1002337E07B6903F530631A46002334
:1056780013617B6903F530631B697A6902F530624F
:1056880043F4002313617B6903F530631B697A696E
:1056980002F5306243F0180313617B6903F5306348
:1056A8001B697A6902F5306243F0C0431361FB7AE3
:1056B800012B0FD17B6903F530631A467B68536170
:1056C8007B6903F530631B687A6902F5306243F041
:1056D80080231360002318461C37BD465DF8047B01
:1056E800704700BF0A30544F80B485B000AF78606F
:1056F8000023FB60FB680133FB60FB68134A93429D
:1057080001D903231BE07B681B69002BF2DA002315
:10571800FB607B681B6943F001027B681A61FB68C8
:105728000133FB60FB68094A934201D9032306E071
:105738007B681B6903F00103012BF0D00023184696
:105748001437BD465DF8047B704700BF400D030069
:1057580080B584B000AF78600B46FB70102001F074
:10576800F1FE0346FB60FB68002B05D17B68002235
:10577800C3F8BC2202231BE07B68FA68C3F8BC228A
:105788007B681B7C002B03D17B6807225A8702E0C9
:105798007B680A225A87042303228121786801F052
:1057A8006AFD7B6801221A87FB6800221A730023AE
:1057B80018461037BD4680BD80B582B000AF78600E
:1057C8000B46FB708121786801F07BFD7B68002225
:1057D8001A877B6800225A877B68D3F8BC32002B73
:1057E80009D07B68D3F8BC32184601F0B3FE7B6859
:1057F8000022C3F8BC22002318460837BD4680BDE6
:1058080080B586B000AF786039607B68D3F8BC3269
:10581800FB600023FB7500237B813B681B7803F04A
:105828006003002B45D0202B40F0D4803B685B7888
:10583800023B092B35D801A252F823F09B580008E7
:105848007B580008AB580008AB580008AB58000854
:10585800AB580008AB580008AB5800088958000836
:105868006D5800083B685B88DBB21A46FB681A6013
:105878001EE0FB6801221946786801F0B4F917E0C8
:105888003B685B881B0A9BB2DBB21A46FB685A600E
:105898000EE0FB68043301221946786801F0A3F989
:1058A80006E03968786801F02DF90323FB7500BF1D
:1058B80097E03B685B780B2B00F2838001A252F8DB
:1058C80023F000BFFD580008D9590008CB5900083B
:1058D800CB590008CB590008CB59000825590008B6
:1058E800CB590008CB590008CB5900087D5900084E
:1058F800A55900087B6893F89C32032B07D107F160
:105908000A0302221946786801F06DF961E03968E6
:10591800786801F0F7F80323FB755AE03B685B8869
:105928001B0A9BB2222B08D13B68DB884A2B28BF75
:105938004A23BB822D4B3B6115E03B685B881B0A01
:105948009BB2212B08D12A4B3B613B68DB88092B92
:1059580028BF0923BB8206E03968786801F0D2F8CD
:105968000323FB7535E0BB8A1A463969786801F06C
:105978003AF92EE07B6893F89C32032B07D1FB6839
:10598800083301221946786801F02DF921E03968B9
:10599800786801F0B7F80323FB751AE07B6893F881
:1059A8009C32032B06D13B685B88DBB21A46FB6846
:1059B8009A600EE03968786801F0A4F80323FB7553
:1059C80007E03968786801F09DF80323FB7500E06B
:1059D80000BF06E03968786801F094F80323FB7586
:1059E80000BFFB7D18461837BD4680BDD800002093
:1059F800C000002080B586B000AFF860B9601346DB
:105A0800FB80FB68D3F8BC327B61FB6893F89C325F
:105A1800032B0CD17B691B7B002B08D17B690122EE
:105A28001A73FB88BA688121F86801F0F2FC002338
:105A380018461837BD4680BD80B483B000AF786083
:105A48007B6822221A80034B18460C37BD465DF846
:105A5800047B70475400002080B483B000AF7860A6
:105A68007B6822221A80034B18460C37BD465DF826
:105A7800047B70477800002080B483B000AF786062
:105A88007B6822221A80034B18460C37BD465DF806
:105A9800047B70479C00002080B483B000AF78601E
:105AA8000B46FB707B68D3F8BC3200221A730023C4
:105AB80018460C37BD465DF8047B704780B483B048
:105AC80000AF78607B680A221A80034B18460C37AF
